{
  "_format": "hh-sol-artifact-1",
  "contractName": "ATM",
  "sourceName": "contracts/ATM.sol",
  "abi": [
    {
      "inputs": [],
      "name": "deposit",
      "outputs": [],
      "stateMutability": "payable",
      "type": "function"
    },
    {
      "inputs": [],
      "name": "getBalance",
      "outputs": [
        {
          "internalType": "uint256",
          "name": "",
          "type": "uint256"
        }
      ],
      "stateMutability": "view",
      "type": "function"
    },
    {
      "inputs": [
        {
          "internalType": "uint256",
          "name": "amount",
          "type": "uint256"
        }
      ],
      "name": "withdraw",
      "outputs": [],
      "stateMutability": "nonpayable",
      "type": "function"
    }
  ],
  "bytecode": "0x608060405234801561001057600080fd5b5061043d806100206000396000f3fe6080604052600436106100345760003560e01c806312065fe0146100395780632e1a7d4d14610064578063d0e30db01461008d575b600080fd5b34801561004557600080fd5b5061004e610097565b60405161005b9190610301565b60405180910390f35b34801561007057600080fd5b5061008b60048036038101906100869190610269565b6100dd565b005b6100956101fd565b005b60008060003373ffffffffffffffffffffffffffffffffffffffff1673ffffffffffffffffffffffffffffffffffffffff16815260200190815260200160002054905090565b806000803373ffffffffffffffffffffffffffffffffffffffff1673ffffffffffffffffffffffffffffffffffffffff16815260200190815260200160002054101561015e576040517f08c379a0000000000000000000000000000000000000000000000000000000008152600401610155906102e1565b60405180910390fd5b806000803373ffffffffffffffffffffffffffffffffffffffff1673ffffffffffffffffffffffffffffffffffffffff16815260200190815260200160002060008282546101ac9190610383565b925050819055503373ffffffffffffffffffffffffffffffffffffffff166108fc829081150290604051600060405180830381858888f193505050501580156101f9573d6000803e3d6000fd5b5050565b346000803373ffffffffffffffffffffffffffffffffffffffff1673ffffffffffffffffffffffffffffffffffffffff168152602001908152602001600020600082825461024b919061032d565b92505081905550565b600081359050610263816103f0565b92915050565b60006020828403121561027b57600080fd5b600061028984828501610254565b91505092915050565b600061029f60148361031c565b91507f496e73756666696369656e742062616c616e63650000000000000000000000006000830152602082019050919050565b6102db816103b7565b82525050565b600060208201905081810360008301526102fa81610292565b9050919050565b600060208201905061031660008301846102d2565b92915050565b600082825260208201905092915050565b6000610338826103b7565b9150610343836103b7565b9250827fffffffffffffffffffffffffffffffffffffffffffffffffffffffffffffffff03821115610378576103776103c1565b5b828201905092915050565b600061038e826103b7565b9150610399836103b7565b9250828210156103ac576103ab6103c1565b5b828203905092915050565b6000819050919050565b7f4e487b7100000000000000000000000000000000000000000000000000000000600052601160045260246000fd5b6103f9816103b7565b811461040457600080fd5b5056fea2646970667358221220bb15c58087f710eadadeb1e52d80f1390338215c3054cab232e034ff040ac4db64736f6c63430008000033",
  "linkReferences": {},
  "deployedLinkReferences": {}
}